:040000008031202803
:100008007E1480312E00961E0A280B2813288C1E79
:100018000E280F2813288731232780311E28161E03
:10002800162817281E280C1E1A281B281E28873158
:100038006E2780317E100900803122282000E801D7
:10004800E901EA01EB01EC01ED01A0308400003088
:10005800850024308731952780317E102000863135
:100068009C2E2000BF003008C0003108C1003208B3
:10007800C2003308C3003408C4003508C500360878
:10008800C6003708C7004030860000308700473F69
:10009800B800B81B502852280130532800302000DF
:1000A800CA004A08031959285A287828C009C109DA
:1000B800C209C309C409C509C609C709C00A031D7D
:1000C8007828C10A031D7828C20A031D7828C30AA4
:1000D800031D7828C40A031D7828C50A031D78283B
:1000E800C60A031D7828C70A20006908803AB800A4
:1000F80080303802031D82280130680203188528E1
:1001080086288C2801302000BB000030BC009128D4
:1001180020006908BC006808BB00210021082000F5
:10012800BE00210020082000BD004A0803199D28B0
:100138009E28B228FF30BD07FF30BE3D4A08031D88
:10014800A628A728AC282B30B9000030BA00B02860
:100158002D30B9000030BA003908CA001F30C80075
:100168000030C9002100C3012129FF302000C80741
:10017800FF30C93D0A30A000A101A201A301A401DA
:10018800A501A601A7014008A8004108A900420846
:10019800AA004308AB004408AC004508AD00460877
:1001A800AE004708AF008231662280312000210866
:1001B800F4002008F3008631D82680317308303ED9
:1001C8002000B8004808A43E86008701380881004E
:1001D800FF30BB07FF30BC3DFF30BD07FF30BE3DE1
:1001E8000A30A000A101A201A301A401A501A60152
:1001F800A7014008A8004108A9004208AA0043082E
:10020800AB004408AC004508AD004608AE004708FE
:10021800AF0081316521803120002008C00021080D
:10022800C1002208C2002308C3002408C40025080E
:10023800C5002608C6002708C70020004908803ADC
:10024800B80080303802031D2B2901304802031CF6
:100258002E292F294929200040084104420443043B
:100268004404450446044704031D3B293C29B92896
:100278003C08803AB80080303802031D4529013017
:100288003B02031848294929B92820004A080319BC
:100298004E294F295929FF30C807FF30C93D480862
:1002A800A43E860087014A0881004808A43EA400AD
:1002B8003E08A6003D08A5003F088631212680316A
:1002C8000800F2012030860000308700473FF00028
:1002D800F01F6F29702991292000A009A109A209FE
:1002E800A309A409A509A609A709A00A031D8F291E
:1002F800A10A031D8F29A20A031D8F29A30A031D22
:100308008F29A40A031D8F29A50A031D8F29A60A70
:10031800031D8F29A70AF201F20A2830860000304F
:100328008700473FF000F01F9A299B29BE2920002B
:10033800A809A909AA09AB09AC09AD09AE09AF0911
:10034800A80A031DBA29A90A031DBA29AA0A031D66
:10035800BA29AB0A031DBA29AC0A031DBA29AD0A8A
:10036800031DBA29AE0A031DBA29AF0A0130F000ED
:100378007008F20673308600003087000830F000FD
:1003880000301E00F00BC52920002008210422049B
:10039800230424042504260427040319D429D52971
:1003A800312AF101F10AE429A035A10DA20DA30D0E
:1003B800A40DA50DA60DA70D0130F0007008F107DA
:1003C800A71FE729E829D829F335F40DF50DF60D0F
:1003D800F70DF80DF90DFA0D27082F02031D0E2A47
:1003E80026082E02031D0E2A25082D02031D0E2A9B
:1003F80024082C02031D0E2A23082B02031D0E2A93
:1004080022082A02031D0E2A21082902031D0E2A8A
:1004180020082802031C112A122A232A2008A802CD
:100428002108A93B2208AA3B2308AB3B2408AC3B84
:100438002508AD3B2608AE3B2708AF3B7314A7360B
:10044800A60CA50CA40CA30CA20CA10CA00C0130AA
:10045800F102031D302A312AE82972080319352AC6
:10046800362A542AF309F409F509F609F709F809AF
:10047800F909FA09F30A031D542AF40A031D542A38
:10048800F50A031D542AF60A031D542AF70A031D08
:10049800542AF80A031D542AF90A031D542AFA0A91
:1004A80073082000A0007408A1007508A20076084F
:1004B800A3007708A4007808A5007908A6007A08A0
:1004C800A7000800F2012830860000308700473F67
:1004D800F000F01F702A712A922A2000A809A909A1
:1004E800AA09AB09AC09AD09AE09AF09A80A031DF1
:1004F800902AA90A031D902AAA0A031D902AAB0A6A
:10050800031D902AAC0A031D902AAD0A031D902AE8
:10051800AE0A031D902AAF0AF201F20A20308600C3
:1005280000308700473FF000F01F9B2A9C2ABB2A17
:100538002000A009A109A209A309A409A509A609DF
:10054800A709A00A031DBB2AA10A031DBB2AA20AE8
:10055800031DBB2AA30A031DBB2AA40A031DBB2A29
:10056800A50A031DBB2AA60A031DBB2AA70A200049
:100578002008210422042304240425042604270433
:100588000319C72AC82A1B2BF101F10AD72AA0355B
:10059800A10DA20DA30DA40DA50DA60DA70D01304B
:1005A800F0007008F107A71FDA2ADB2ACB2A2708F0
:1005B8002F02031DF92A26082E02031DF92A2508F1
:1005C8002D02031DF92A24082C02031DF92A2308E9
:1005D8002B02031DF92A22082A02031DF92A2108E1
:1005E8002902031DF92A20082802031CFC2AFD2AD7
:1005F8000D2B2008A8022108A93B2208AA3B2308A2
:10060800AB3B2408AC3B2508AD3B2608AE3B27088E
:10061800AF3BA736A60CA50CA40CA30CA20CA10CEE
:10062800A00C0130F102031D1A2B1B2BDB2A7208C8
:1006380003191F2B202B3E2BA809A909AA09AB09CE
:10064800AC09AD09AE09AF09A80A031D3E2BA90ADA
:10065800031D3E2BAA0A031D3E2BAB0A031D3E2B8E
:10066800AC0A031D3E2BAD0A031D3E2BAE0A031D2B
:100678003E2BAF0A20002808A0002908A1002A085C
:10068800A2002B08A3002C08A4002D08A5002E0802
:10069800A6002F08A70008002000D9004B088600F4
:1006A8008701403FCD00413FCE004D0884004E08F1
:1006B80085001200253A031D622B632BD82B4B08AB
:1006C800860087010130810741310318810A210022
:1006D800A001A10103100030031801302000EC0034
:1006E800FF30E800FF30E9004B0886008701403FF3
:1006F800DA00413FDB005A0884005B0885001200DD
:10070800643A0319882B892B932B5A0884005B08B9
:1007180085001200693A031D922B932BCE2B4C08AF
:100728008600870101088400850102308107003FA7
:10073800CD00013FCE004D08D1004E08D200890DF2
:10074800893B8909D300D400D500D600D700D8004A
:100758005A08013ECD0000305B3DCE004B088600B4
:1007680087014D08C03F4E08C13F5108B0005208EC
:10077800B1005308B2005408B3005508B400560835
:10078800B5005708B6005808B70059088031352019
:100798008331F02B20004B08860087010130810748
:1007A80041310318810AF02B4B0886008701403F2E
:1007B800CD00413FCE004D0884004E08850000085A
:1007C800CF00D0014F08F2005008F3005908F40098
:1007D8008531E0258331CE2B0800E830F000033066
:1007E800F1007A08F3007908F2008431E2248331B9
:1007F80071082100CD007008CC00E830F00003300B
:10080800F1007A08F3007908F20085314125833137
:100818007108FA007008F9006430F0000030F10047
:100828007A08F3007908F2008431E22483317108F0
:100838002100CF007008CE006430F0000030F100D5
:100848007A08F3007908F20085314125833171086F
:10085800FA007008F9000A30F0000030F1007A0858
:10086800F3007908F2008431E22483317108210011
:10087800D1007008D0000A30F0000030F1007A088A
:10088800F3007908F2008531412583317108210090
:10089800D3007008D200520884317F248331083095
:1008A80020009700A630890B572C003221005008F1
:1008B80084317F248331043020009700A630890BCF
:1008C800632C003221004E0884317F2483310230AA
:1008D80020009700A630890B6F2C003221004C08AD
:1008E80084317F248331013020009700A630890BA2
:1008F8007B2C00320800F400FF30873187278431D1
:10090800B72C3F3087318E278431E12C0630873170
:100918008E278431E12C5B3087318E278431E12C9E
:100928004F3087318E278431E12C663087318E270E
:100938008431E12C6D3087318E278431E12C7D3074
:1009480087318E278431E12C073087318E27843117
:10095800E12C7F3087318E278431E12C6730873155
:100968008E278431E12C7408F200F301F21BF303A3
:100978007308003A0319C12CE12C7208003A0319D4
:10098800852C013A03198A2C033A03198F2C013A52
:100998000319942C073A0319992C013A03199E2C30
:1009A800033A0319A32C013A0319A82C0F3A031987
:1009B800AD2C013A0319B22CE12C0800F601F11F05
:1009C800E62CE72CEE2CF009F109F00A0319F10ADC
:1009D800F601F60AF31FF12CF22CFB2CF209F309AD
:1009E800F20A0319F30A0130F4007408F606F70155
:1009F800F801700871040319022D032D322DF50139
:100A0800F50A0F2D0130F035F10D890B072D013056
:100A1800F4007408F507F11F122D132D062D01306F
:100A2800F735F80D890B142D71087302031D1E2D5F
:100A380070087202031C212D222D272D7008F20246
:100A48007108F33B77140130F136F00C890B282D2F
:100A58000130F502031D312D322D132D76080319AF
:100A6800362D372D3C2DF709F809F70A0319F80A2E
:100A78007808F1007708F0000800F601F31F452D0B
:100A8800462D4D2DF209F309F20A0319F30AF6016E
:100A9800F60AF11F502D512D562DF009F109F00AD3
:100AA8000319F10A7008710403195B2D5C2D852D5B
:100AB800F501F50A682D0130F035F10D890B602D2F
:100AC8000130F4007408F507F11F6B2D6C2D5F2DB4
:100AD80071087302031D722D70087202031C752DB4
:100AE800762D7A2D7008F2027108F33B0130F13649
:100AF800F00C890B7B2D0130F502031D842D852D0B
:100B08006C2D76080319892D8A2D8F2DF209F3098A
:100B1800F20A0319F30A7308F1007208F0000800DA
:100B280020009A01990196019701980107309500D4
:100B3800EF309100FF309200BF309300FF309400F7
:100B4800FF303E00D9007F30CE00EF30C3000730C1
:100B5800E400EF30B800DA01E501C401B901CF01C2
:100B6800E601BA01C501D001DB01FF30BB00FF304F
:100B7800C600FF30D100FF30DC000730E700FF304F
:100B8800BC00FF30C700FF30D200FF30DD00073067
:100B9800E8004A1249164812BF30F0000730F10049
:100BA8008731A72785312E00161617303D00CB0058
:100BB80010303E00A600080074080319E42DE52D46
:100BC800EA2D7408031DE92DEA2DEF2D72088731EF
:100BD8009B278531202E7408083E86008701160061
:100BE80001040319F82DF92D172E7408083E860004
:100BF8008701403FF500413FF6007408023E860039
:100C08008701403FF700413FF8007808803AF90033
:100C18007608803A7902031D132E750877020318A7
:100C2800162E172E202E7408023E860087010130EA
:100C3800810741310318810A08002000AB00A61B78
:100C4800262E272E2C2E2608AA002508A9002E2E8F
:100C5800A901AA01A701A801402E2030F200003006
:100C6800F30020002B08F4008531E025863101309F
:100C78002000A7070030A83D2808803AFD002A0870
:100C8800803A7D02031D4A2E29082702031C4D2E97
:100C98004E2E312E20002B08FA00240886315626C5
:100CA800863108002000A300A101A2016C2E2008B3
:100CB800FB00FC017B08F2007C08F3007A08F400D2
:100CC8008531E025863101302000A1070030A23DA2
:100CD80021082307FB007B08860087010108A00084
:100CE8002008031D782E792E5B2E0800083022007C
:100CF8009F0090309D0024309E0019309B009C017D
:100D08000030F0000030F1008731B3278631003021
:100D1800F0000030F1008731AD2786310030F00057
:100D28000030F1008731B92786312000ED01080035
:100D38008731372786318B170B1720009401103025
:100D48009200C5302000E3008730E4006B08E6001D
:100D58006A08E50087315627863120006B08FA00BB
:100D68006A08F9008331F1238631A52E80312028C5
:100D78002000E0005D08E2005C08E100CB2E613055
:100D8800CB005E08CC0060088331502386312000F8
:100D980061088400620885001200031DD42ED52E38
:100DA800C32EDC01DD0108007408803AF5008030AC
:100DB8007502031DE12E013073020318E42EE52E9F
:100DC800F12E7309F5007409F600F50A0319F60AFD
:100DD8007508F3007608F400F12E0800643020004E
:100DE8009F000B309D00DC309C001D08EF001C08A4
:100DF800EE002E008C1296160B30F0000730F10032
:100E08008731A1278631903020009E00080003100A
:100E18002000161E03140318122F152F2000161673
:100E2800172F20001612210023082000EB002100B4
:100E380022082000EA002100A201A30108002E00D8
:100E48008C1220006F089D006E089C0021004A0843
:100E58004B040319302F312F362F4B088A004A08CC
:100E68000A00873108008731772787318531942533
:100E7800873187317F2787318631F226873186315E
:100E88007A268731080021005408550403194D2F8C
:100E98004E2F532F55088A0054080A0087313E0008
:100EA8004A12080065302000E7006408DD00630886
:100EB800DC006730DE0000308631BC268731080050
:100EC800F0002E000F1E692F6A2F652F7008220070
:100ED8009A0008003E004A1E722F732F762F873122
:100EE8004727873108002F0096019701980199013B
:100EF8009A019B010800603031008D008F0191013B
:100F0800930192010800F1007108F00070082000B8
:100F180099040800F1007109F00070082000990593
:100F28000800640080010131890B962F0034F1001C
:100F38007108873164278731080071082100CB00C8
:100F48007008CA00080071082100D5007008D40094
:100F5800080071082100C7007008C6000800710861
:100F68002100C9007008C800080071082100C500E8
:100F78007008C400080001302100A2070030A33D1A
:0A0F88000800253469340A340034EF
:020000040001F9
:08000000FF3FFF3FFF3FFF3F00
:0A000E00EC3FFF3F9F3FFF3FFF3F25
:00000001FF
